:020000040000FA
:1000000060020020C9010000D1010000D3010000FE
:10001000D5010000D7010000D90100000000000058
:10002000000000000000000000000000DB010000F4
:10003000DD01000000000000DF010000E101000020
:10004000E3010000E3010000E3010000E301000020
:10005000E3010000E3010000E3010000E301000010
:10006000E3010000E3010000E3010000E301000000
:10007000E3010000E3010000E3010000E3010000F0
:10008000E3010000E3010000E3010000E3010000E0
:10009000E3010000E3010000E3010000E3010000D0
:1000A000E3010000E3010000E3010000E3010000C0
:1000B000E3010000E3010000E3010000E3010000B0
:1000C000E3010000E3010000E3010000E3010000A0
:1000D000E3010000E3010000E3010000E301000090
:1000E000E30100000000000000000000000000002C
:1000F0000000000000000000000000000000000000
:1001000000000000000000000000000000000000EF
:1001100000000000000000000000000000000000DF
:1001200000000000000000000000000000000000CF
:1001300000000000000000000000000000000000BF
:100140000000000000F002F800F02EF80AA090E88D
:10015000000C82448344AAF10107DA4501D100F082
:1001600023F8AFF2090EBAE80F0013F0010F18BF21
:10017000FB1A43F0010318470403000014030000B6
:100180000023002400250026103A28BF78C1FBD8A0
:10019000520728BF30C148BF0B6070471FB500F041
:1001A00067F91FBD10B510BD00F02FF81146FFF71D
:1001B000F5FF00F03DF900F04DF803B4FFF7F2FF52
:1001C00003BC00F055F80000094880470948004783
:1001D000FEE7FEE7FEE7FEE7FEE7FEE7FEE7FEE7F7
:1001E000FEE7FEE704480549034A054B7047000057
:1001F000750300004501000060000020600200203F
:1002000060000020704770477047754600F02CF87A
:10021000AE4605006946534620F00700854618B0F3
:1002200020B5FFF7DFFFBDE820404FF000064FF09C
:1002300000074FF000084FF0000B21F00701AC461B
:10024000ACE8C009ACE8C009ACE8C009ACE8C0093A
:100250008D46704710B50446AFF300802046BDE8D8
:100260001040FFF7AABF00000048704700000020C0
:1002700001491820ABBEFEE72600020070470000CF
:100280000348008840F002000149088070470000E0
:10029000002000400348008840F004000149088025
:1002A000704700000020004000B503460D4803845D
:1002B000008820F010000B490880FFF7E1FF00F0F4
:1002C00099F80848808D00F0200020B900F088F8E7
:1002D00004488089C2B2FFF7DDFF00F095F81046B0
:1002E00000BD0000002000401048008840F00100E0
:1002F0000E4908800E48007840F0C0000C49087094
:10030000881C007820F0C000891C0870074800880D
:1003100040F47860054908804FF4C870C8800846EA
:10032000008820F001000880704700000020004095
:100330000A4C004000B503460A460D480384008875
:1003400040F010000A490880FFF79AFF00F052F8C9
:1003500000F064F80648C281808D00F0200008B9E2
:1003600000F05CF8FFF796FF00F04EF800BD0000CB
:10037000002000401548006840F4700013490860F0
:100380004FF4B5401249088080201249486146F672
:100390005A10114908604FF48030091D0860081D8B
:1003A000006820F00710C01C091D086000200A49E1
:1003B00008600A48006920F03000084908610846D2
:1003C000406920F0300048617047000088ED00E08F
:1003D0000C480040003004E00004014000100140DF
:1003E00000BF0348808D00F001000028F9D070475D
:1003F0000020004000BF0348008800F002000028F1
:10040000F9D170470020004000BF0348008800F089
:1004100004000028F9D170470020004000BF0348C5
:10042000808D00F002000028F9D0704700200040C5
:100430000FB5202523260AA30FCB8DE80F00FFF769
:1004400053FF0BE02846FFF72FFF044604F00F0090
:100450001DF8004021463046FFF76CFFF2E7000030
:100460004079243019120278001808034621060E3C
:100470004FF04070E1EE100A704700008C0400005D
:0C0480000000002060020000800100006D
:04000005000001C92D
:00000001FF
